:020000040800F2
:1000000000060020E1020008E3020008E302000805
:10001000E3020008E3020008E3020008E30200082C
:10002000E3020008E3020008E3020008D5370008F5
:10003000E3020008E3020008E3020008E30200080C
:10004000E3020008E3020008E3020008E3020008FC
:10005000E3020008E3020008E3020008E3020008EC
:10006000E3020008E3020008E3020008111400089C
:10007000391400086514000891140008BD14000824
:10008000E514000811150008E3020008E302000867
:10009000E3020008E3020008E3020008E3020008AC
:1000A000E3020008E3020008E3020008E30200089C
:1000B000E3020008E3020008E3020008E30200088C
:1000C000E3020008E3020008E3020008E30200087C
:1000D000E30200080D530008E3020008E3020008F1
:1000E000E3020008E3020008E3020008E30200085C
:1000F000E3020008E3020008E30200083D150008DF
:10010000E3020008E302000821530008E3020008AC
:10011000E3020008E3020008E3020008E30200082B
:100120006915000891150008BD150008E9150008BB
:1001300015160008E3020008E3020008E3020008C5
:10014000E3020008E3020008E3020008E3020008FB
:100150003D1600086916000895160008E30200081D
:10016000E3020008E3020008E3020008E3020008DB
:10017000E302000801460008E3020008E302000869
:10018000E3020008E3020008E3020008E3020008BB
:10019000E3020008E3020008E3020008E3020008AB
:1001A000E3020008E3020008E3020008E30200089B
:1001B000E3020008E3020008E3020008E30200088B
:1001C000E3020008E3020008E3020008E30200087B
:1001D000E3020008ED450008E3020008E30200081E
:1001E000E3020008E3020008E3020008E30200085B
:1001F000E3020008E3020008E3020008E30200084B
:10020000E3020008E3020008E3020008E30200083A
:10021000E3020008E3020008E3020008E30200082A
:10022000E3020008E3020008E3020008E30200081A
:10023000E3020008E3020008E3020008E30200080A
:10024000E3020008E3020008E3020008E3020008FA
:10025000E3020008E3020008E3020008E3020008EA
:10026000E3020008E3020008E3020008E3020008DA
:10027000E3020008E3020008E3020008E3020008CA
:10028000E3020008E3020008E3020008E3020008BA
:10029000E3020008E3020008E3020008E3020008AA
:1002A000E3020008E3020008E3020008E30200089A
:1002B000E3020008E3020008E3020008E30200088A
:1002C000E3020008E3020008E3020008E30200087A
:1002D000E3020008E3020008E3020008E30200086A
:1002E00002E000F000F8FEE772B6374880F30888B5
:1002F000364880F3098836483649086040F20000E5
:10030000CCF200004EF63471CEF200010860BFF36B
:100310004F8FBFF36F8F40F20000C0F2F0004EF637
:100320008851CEF200010860BFF34F8FBFF36F8F8B
:100330004FF00000E1EE100A4EF63C71CEF20001E3
:100340000860062080F31488BFF36F8F03F014FB5E
:1003500004F0CCFD4FF055301F491B4A91423CBF81
:1003600041F8040BFAE71D49184A91423CBF41F895
:10037000040BFAE71A491B4A1B4B9A423EBF51F83D
:10038000040B42F8040BF8E700201849184A914280
:100390003CBF41F8040BFAE703F0F6FA04F0C8FD9D
:1003A000144C154DAC4203DA54F8041B8847F9E7A6
:1003B00000F0CEF8114C124DAC4203DA54F8041B95
:1003C0008847F9E703F0DEBA00060020002200208B
:1003D0000000000808ED00E00000002000060020FA
:1003E00038580008002200206422002068220020E3
:1003F00098480020E0020008E0020008E00200083F
:10040000E00200082DE9F04F2DED108AC1F80CD064
:10041000D0F80CD0BDEC108ABDE8F08F002383F338
:1004200011882846A047002002F004FCFEE702F0F5
:1004300077FB00DFFEE7000080EA0102844612F04D
:10044000030F4FD111F0030F32D14DF8044D11F0CD
:10045000040F51F8043B0BD0A3F101329A4312F080
:10046000803F04BF4CF8043B51F8043B16D100BF59
:1004700051F8044BA3F101329A4312F0803FA4F1EA
:1004800001320BD14CF8043BA24312F0803F04BF71
:1004900051F8043B4CF8044BEAD023460CF8013BDE
:1004A00013F0FF0F4FEA3323F8D15DF8044B704788
:1004B00011F0010F06D011F8012B0CF8012B002AC6
:1004C00008BF704711F0020FBFD031F8022B12F0B5
:1004D000FF0F16BF2CF8022B8CF8002012F47F4F70
:1004E000B3D1704711F8012B0CF8012B002AF9D178
:1004F000704700BF032A30B415D941EA0004A407AD
:1005000084460B4604D0541E0FE0043A032A08D94F
:100510001946604653F8044B5CF8045BA542F4D0DE
:10052000F1E760461946541E7AB1431E013902199B
:1005300001E09A4209D013F8010F11F801CF60458C
:10054000F7D0A0EB0C0030BC7047002030BC7047E7
:1005500038B500F0A3FC00F02DFF03F0F1F80446DD
:1005600003F02AF9054640B90E4B9C4212D00133E4
:100570009C4211D041F2883400E00024002003F0B6
:10058000EBF865B900F0B2FE204600F073F900F018
:1005900003F9F9E70024F1E700240125EEE700F074
:1005A000FBF8EFE7010007B0BFF34F8FBFF36F8F8A
:1005B000064B5A6922F400325A610022C3F85022D5
:1005C000BFF34F8FBFF36F8F704700BF00ED00E0A8
:1005D00010B4154B0022C3F88420BFF34F8F5A6923
:1005E00022F480325A61BFF34F8FD3F88040C4F3B6
:1005F0004E3000E01846C4F3C90243F6E07303EA44
:10060000401343EA82730849C1F874321346013A31
:10061000002BF2D1431E0028ECD1BFF34F8FBFF364
:100620006F8F5DF8044B704700ED00E038B504466D
:100630000D46BFF34F8FBFF36F8FFFF7C9FFFFF773
:10064000B3FF302383F31188A54684F30888284735
:1006500038BD00BF00B583B0019004210DEB01004F
:1006600000F008FC03B05DF804FB00BF08B50221F0
:10067000014800F0FFFB08BD2054000808B5022126
:10068000014800F0F7FB08BD1C54000808B5022122
:10069000014800F0EFFB08BD18540008F8B5044607
:1006A0000D4616461F4603680BB102F08BFB3B4616
:1006B00032462946204602F077FBF8BD08B53023C4
:1006C00083F3118800231C4A4FF47A711B48FFF70B
:1006D000E5FF002383F3118801E00133DBB2012B36
:1006E0000BD8174A52F82320002AF6D0144951F8A3
:1006F0002320013A41F82320EFE7124B1B7813B96E
:100700000F4B5B6823B10F4B1B78032B07D008BD41
:10071000022000F039FD0A4B32225A60F3E7084B01
:100720005B68002BF3D1022000F02EFD044B4FF448
:100730007A725A60EBE700BFBD06000878230020FC
:100740006C2300207423002008B5C0EB401300EB9D
:100750008300C00002F076FA08BD00BF08B50C4B5C
:100760001870032806D8DFE800F00A06020E0220FF
:1007700000F0FAFC08BD022000F0E4FCFAE7054BAB
:1007800000225A60F6E7034B00225A60F2E700BFEE
:10079000742300206C23002008B50023072B08D801
:1007A000304A52F82320B2F1FF3F0DD00133DBB2C3
:1007B000F4E72C4B5B682C4A934205D92B4A91688D
:1007C000284A0A44934200D308BD002000F092FB5F
:1007D0000220FFF7C3FF264BD3F8E8200022C3F81E
:1007E000E820D3F81011C3F81021D3F81011D3F872
:1007F000EC10C3F8EC20D3F81411C3F81421D3F88B
:100800001411D3F8F010C3F8F020D3F81811C3F87E
:100810001821D3F81821D3F8802042F00062C3F8E1
:100820008020D3F8802022F00062C3F88020D3F823
:100830008020D3F8802042F00072C3F88020D3F8E3
:10084000802022F00072C3F88020D3F8803072B686
:10085000044B4FF0E022C2F8083D59681868FFF7D2
:10086000E5FEB1E700000208FFFF010800220020BA
:10087000004402582DE9F04F93B00546AD4BD3F834
:1008800008A02022FF210AA800F0D0FCAA4B1B7868
:100890007BB10DB1A94B1D60A94B1B78032B1AD15D
:1008A0002C460026B0463746B146012000F05CFCDD
:1008B0001AE0A14B01221A70A248002404603023E0
:1008C00083F311882346A04A4FF47A71FFF7E6FEBE
:1008D00084F31188DDE70020FFF740FFE0E7002008
:1008E00000F0A8FA002808DA002CF8D0934B1B6817
:1008F000002BF4D113B0BDE8F08F8346012000F047
:1009000021FCABF121031F2BCFD801A252F823F019
:1009100091090008B5090008470A0008AB0800085B
:10092000AB080008AB080008CF0A0008CD0C00088F
:10093000BB0B00081F0C0008430C0008670C0008E4
:10094000AB080008850C0008A70C0008210D000862
:100950009F090008AB080008650D0008710C00082D
:100960009F090008AB0800081F0C0008AB0800082E
:10097000AB080008AB080008AB080008AB0800088B
:10098000AB080008AB080008AB080008470A0008DD
:10099000022000F04FFA202840F06A81012700F081
:1009A0009BFC27B108F00B030B2B00F0FD81FFF738
:1009B0005DFE7AE74FF47A7000F03CFAB0F1000B7C
:1009C000C0F25681022000F035FA202840F0508114
:1009D0000BF1FF33052B00F2E981DFE803F003118F
:1009E000161B2C2F0520FFF735FE0BF1FF300123DE
:1009F000834048EA03035FFA83F84FF00009CEE72B
:100A00004C4B1868FFF726FEEFE74A4B5868FFF794
:100A100021FEEAE7474B9868FFF71CFEE5E74FEA3F
:100A2000890000F0F9FAFFF715FE09F10109B9F1A3
:100A30000A0FF4D9D9E74FF00709F8E73D4BD8681A
:100A4000FFF708FED1E7002F00F0128108F00B033A
:100A50000B2B40F00D81022000F0ECF9202840F033
:100A60000781012000F046FA0220FFF777FE0026FA
:100A700001E00136B6B2304600F0DEFA044670B14D
:100A8000BBF1400F14BF00210121304600F0E6FA0F
:100A90000028EED13E460024FFF7F8FD05E70120CF
:100AA000FFF75CFEA246234B9B68534509D950468D
:100AB00000F0B2FAB0F1FF3F40F07D810AF1040A84
:100AC000F1E70020FFF74AFE3E46A24667E7002F07
:100AD00000F0CE8008F00B030B2B40F0C980022001
:100AE000FFF73CFE322000F0A5F9B0F1000BC0F298
:100AF000BF801BF0030F40F0BB80CDF800B00BEBC4
:100B00000A030C4A9268934200F2B280BBF5807FE0
:100B100000F2AE80002301941C46A34518DD4FF47B
:100B20007A7000F087F90028C0F24381074B18550E
:100B30000134F2E700220020682300206C2300200B
:100B40007423002078230020BD06000868220020BE
:100B5000019CC82000F06EF9202840F08980BAF18D
:100B60001F0F15D8CAF120039B4500D900932AF026
:100B700003009DF8003000931A4690490DF1280CAF
:100B8000604400F027FB009AFF218C4800F04EFBE8
:100B90005A46BBF1000F0DDB4FEAA20BC2F38702EE
:100BA0008649504600F04CFB00283FF475AF0AEB35
:100BB0008B0AF4E60BF10302EEE7022000F03AF9AB
:100BC000202855D100F064FA002851D04FF0000BD6
:100BD00000945C460BE0584600F01EFA0290042296
:100BE00002A9204600F0F8FB04460BF1040B744BFD
:100BF0009B685B450ED9BBF11F0FECD80A9BB3F184
:100C0000FF3FE8D02BF0030348336B4453F8203CFC
:100C10000293E4E72046009CFFF71CFDBFE600239B
:100C20000293642102A800F019F908BB022000F029
:100C300001F920281CD1029800F022FAFFF70AFDE2
:100C4000ADE600230293642102A800F007F978B909
:100C5000022000F0EFF820280AD1029800F012FAE2
:100C6000FFF7F8FC9BE6022000F0E4F8202804D00F
:100C700006B92C46FFF702FD17E600F01BFAFFF756
:100C8000E9FC8CE6022000F0D5F82028F0D102A97A
:100C9000142000F015FA8346FFF7DCFC594602A841
:100CA00000F0E8F87BE6022000F0C4F82028DFD14D
:100CB0000DF1080B434B0FCB8BE80F001020FFF713
:100CC000C9FC1021584600F0D5F868E6322000F043
:100CD000B1F8B0F1000BCBDB1BF0030FC8D10BEB6D
:100CE0000903374A92689342C2D8022000F0A2F862
:100CF0002028BDD15B46BBF1000F01DB9B100AE051
:100D00000BF10303FAE7484600F086F9FFF7A2FC6F
:100D100009F104095B4603F1FF3B002BF3DC3EE6DF
:100D20004FF47A7000F086F82028A1D100F0B0F9D5
:100D300000283FF4B1AE0A9BB3F1FF3F0CD008226C
:100D40000AA9002000F07CFA00283FF4A5AE20227A
:100D5000FF210AA800F06AFAFFF788FC6420FFF779
:100D6000F3FCC7E5002F83D008F00B030B2B7FF4B7
:100D70007FAF00230293642102A800F06FF80028DF
:100D80007FF476AF022000F055F820287FF470AF92
:100D9000FFF76CFC0520FFF7D7FC029800F0E8FA9B
:100DA00000F09AFA002480E5002400E64FF00009E4
:100DB0005EE7019C5CE73E466EE600BF68220020CD
:100DC000002200206C5300082DE9F04107460E4632
:100DD0001546002411E0144B53F824000368D3F89F
:100DE0002080C5EB451305EB8303DB003246394613
:100DF000C04786420CD00134E4B2012C0CD80B4B16
:100E000093F90030B3F1FF3FE5D0A342F3D1E2E71D
:100E1000074B1C70012004E04FF4FA7001F012FF40
:100E20000020BDE8F08100BF142200201022002025
:100E3000C023002000B583B0024600238DF80730A0
:100E400001210DF10700FFF7BFFF20B19DF807005A
:100E500003B05DF804FB4FF0FF30F9E708B50A4630
:100E60000421FFF7B1FF08B1002008BD4FF0FF30AB
:100E7000FBE700BF10B584460A46054B1978054BC1
:100E800053F821000368DC69034B6146A04710BD9D
:100E9000C023002014220020A086010038B502F0F3
:100EA000A7FA124B1880002406E002F09DFA0444D1
:100EB0000F4A136801331360B4F5003F07D20B4BA0
:100EC0001B880B4A10688342EFD8002500E00025FC
:100ED000B5F5802F09D2054C2088013802F084FA3C
:100EE00005442388013B2380F2E738BDB823002066
:100EF000BC23002008B502F0EBFA08BD2DE9F04153
:100F000005460F4600231A461946012000F07EFCD4
:100F10000446802002F098FB002C18BF002801D165
:100F2000BDE8F08106463A4B5A6942F0C0625A6108
:100F3000D3F8142142F0C062C3F81421284602F00D
:100F400053FA00FB05F2EB1903FB00F082422FD2AB
:100F50002F4B1B6913F0806F2AD12D4BD3F8103122
:100F600013F0806F24D1236802F100619960236837
:100F7000DE6023688021596023684FF4D0611960D6
:100F800021680B6843F001030B6021680B6823F0B4
:100F90001E030B6023681B6813F0010FFAD194F84D
:100FA0000CC061683D2303FA0CF30B608032CDE77F
:100FB000824211D3204600F06BFC304602F07EFBEB
:100FC000134B5A6942F0C0625A61D3F8142142F0BF
:100FD000C062C3F81421A3E70E4B9A6A42F4007270
:100FE0009A629A6A42F400429A6261B60120FFF75F
:100FF00081FF4FF0000805E005EB080002F012FA4F
:1010000008F101084745F7D80020FFF773FFD1E743
:101010000020005200ED00E0014BC058704700BFB7
:101020000000020808B5034692000248184402F086
:101030004BFA08BD0000020808B5064B1B88064A9B
:1010400012689B1A834201D8002008BD104402F0A8
:10105000CBF9FAE7B8230020BC23002010B50446E2
:1010600029B9064B1868204402F0C4F920B9034B93
:101070001868204402F0D6F910BD00BFBC23002040
:1010800000207047014BC058704700BF00E8F11FB7
:1010900008B5074B93F824300BB9012008BD04496B
:1010A000002381F824300822086AFFF7BBFFF5E728
:1010B00090230020014B1868704700BF0010005CAF
:1010C00010B51B4B1B68C3F30B044FEA134C0138DC
:1010D00001EB000E174B184A934211D01A88A24216
:1010E00001D00833F7E75B68084602E0013300F8F7
:1010F000012B704505D293F90020002AF6D100E0BB
:101100000846704502D22C2300F8013B0B4B00E04F
:1011100004330B4A934208D01A886245F8D17045CF
:10112000F6D29A7800F8012BF2E7401A10BD00BF02
:101130000010005C1C2200203422002024540008EF
:1011400034540008022802D0012805D07047054B0E
:101150004FF480129A617047024B4FF480229A61DB
:10116000F4E700BF00100258022802D0012804D082
:101170007047044B10229A617047024B04229A6117
:10118000F6E700BF00100258022802D0012806D05E
:101190007047064A536983F010035361F6E7034A28
:1011A000536983F004035361F2E700BF0010025853
:1011B00038B504460AE02546412C28BF41254FF4A6
:1011C0007A7005FB00F001F03DFD641B002CF2D1AC
:1011D00038BD00BF002304E011F803C000F803C0CD
:1011E00001339342F8D3704702E001300131624687
:1011F00090F9003043B191F900C0634504D102F188
:10120000FF3C002AF1D162461AB191F90020981AE8
:1012100070470020704700BF0346002000E0013007
:1012200013F9012B002AFAD1704700BF034602E0F0
:1012300003F8011B624602F1FF3C002AF8D1704717
:101240002DE9F84380460F461546224B93F824308B
:101250003BB3204A126A02EB8303834221D0FFF79B
:1012600017FF0346E8B931E01A4E96F82400C0F1A2
:101270000804AC4228BF2C46E4B24FEA84094A462F
:10128000394606EB8000FFF7A5FFC8444F442D1BED
:10129000EDB296F824302344DBB286F82430082BD4
:1012A0000DD095B10B4B93F82430002BDCD10948BD
:1012B000C0F820802022FF21FFF7B8FFD4E7FFF716
:1012C000E7FE03460028ECD100E001231846BDE804
:1012D000F88300BF90230020024B93F90020024BBB
:1012E0001A707047C02300201022002038B51A4D14
:1012F000284600F0BFFE194C2146284600F0E8FEC3
:101300002468D4F89020D2F8043843F00203C2F8DD
:1013100004384FF47A70FFF74BFF1149204601F073
:1013200039F8D4F89020D2F8043823F00203C2F838
:1013300004380C4B4FF4E1321A600B4C00E00434DB
:101340000A4B9C4207D02068034B9842F7D00549CE
:1013500000F0CEFDF3E738BDD02D0020B4550008D5
:10136000BC550008C4230020142200201C220020A9
:1013700038B50C4B1A780C4B53F822200B4B9A4281
:101380000FD004460A4D182200212846FFF74EFFD1
:101390002C60044B1A782946034B53F8220000F0C6
:1013A000A7FD38BDC023002014220020D02D00202E
:1013B000C423002008B571B6054B1988054B188861
:1013C000FFF79CFD02210E20FFF798FD61B608BDD6
:1013D000B8230020BC23002000B596460AE040F365
:1013E000000C0A4A0CEA020282EA50000133DBB226
:1013F000072BF4D973460EF1FF3E23B111F8013BE0
:1014000058400023F4E75DF804FB00BF2083B8EDEB
:1014100008B5074B196801F03D019960054B5B6801
:1014200013B1044A9068984702F00CFA08BD00BF57
:1014300000000240DC23002008B5084B1968890928
:1014400001F03D018A019A60054BDB6813B1044A43
:101450001069984702F0F6F908BD00BF000002408D
:10146000DC23002008B5084B1968090C01F03D0188
:101470000A049A60054B5B6913B1044A9069984766
:1014800002F0E0F908BD00BF00000240DC230020AC
:1014900008B5084B1968890D01F03D018A059A606D
:1014A000054BDB6913B1044A106A984702F0CAF988
:1014B00008BD00BF00000240DC23002008B5074B38
:1014C000596801F03D01D960054B5B6A13B1044ACC
:1014D000906A984702F0B6F908BD00BF00000240CC
:1014E000DC23002008B5084B5968890901F03D014B
:1014F0008A01DA60054BDB6A13B1044A106B984726
:1015000002F0A0F908BD00BF00000240DC2300206B
:1015100008B5084B5968090C01F03D010A04DA606E
:10152000054B5B6B13B1044A906B984702F08AF944
:1015300008BD00BF00000240DC23002008B5084BB6
:101540005968890D01F03D018A05DA60054BDB6BB6
:1015500013B1044A106C984702F074F908BD00BF3B
:1015600000000240DC23002008B5074B196801F099
:101570003D019960054B5B6C13B1044A906C984730
:1015800002F060F908BD00BF00040240DC23002027
:1015900008B5084B1968890901F03D018A019A6074
:1015A000054BDB6C13B1044A106D984702F04AF901
:1015B00008BD00BF00040240DC23002008B5084B32
:1015C0001968090C01F03D010A049A60054B5B6D36
:1015D00013B1044A906D984702F034F908BD00BF7A
:1015E00000040240DC23002008B5084B1968890D6F
:1015F00001F03D018A059A60054BDB6D13B1044A89
:10160000106E984702F01EF908BD00BF00040240AA
:10161000DC23002008B5074B596801F03D01D96073
:10162000054B5B6E13B1044A906E984702F00AF9BD
:1016300008BD00BF00040240DC23002008B5084BB1
:101640005968890901F03D018A01DA60054BDB6EBA
:1016500013B1044A106F984702F0F4F808BD00BFB8
:1016600000040240DC23002008B5084B5968090C2F
:1016700001F03D010A04DA60054B5B6F13B1044AC7
:10168000906F984702F0DEF808BD00BF00040240EA
:10169000DC23002008B5084B5968890D01F03D0195
:1016A0008A05DA60054BDB6F1BB1044AD2F8800073
:1016B000984702F0C7F808BD00040240DC23002070
:1016C00000230C4A136009E01A010B498A580021D3
:1016D0001160084A02EBC302516001330F2BF3D9AA
:1016E000064A4FF0FF339360D36002F58062936047
:1016F000D3607047DC23002034540008000002400F
:1017000070B512287AD8DFE800F00A0A0A0A0A0A35
:101710000A0A0A0A0A0A0A0A0A0A20181C00864645
:10172000704568D84FF0010C0CFA00FC344C24686A
:1017300014EA0C0F0DD00130F2E74FF0070E002035
:10174000EEE74FF00F0E0720EAE74FF00F0E0020F4
:10175000E6E72C4D05EB0015294E06EBC00ECEF842
:101760000420CEF8083044EA0C0434601CF0FF0F6B
:101770000ED0254BD3F8D84044F00104C3F8D8402C
:10178000D3F8004144F00104C3F80041D3F800311C
:101790001CF47F4F0ED01C4BD3F8D84044F0020409
:1017A000C3F8D840D3F8004144F00204C3F8004124
:1017B000D3F800310301134CE458236823F01F03CE
:1017C0002360236813F0010FFBD10E4B03EB0013D2
:1017D00093F80CC05E683D2303FA0CF333600023DA
:1017E0002360212363613AB1064B03EB0013987B1E
:1017F00000F08EF900E00025284670BD0025FBE7CB
:10180000DC230020345400080044025808B54FF08F
:10181000300C8CF31188FFF773FF002383F31188DA
:1018200008BD00BF10B50446807B00F085F916495D
:101830000B68607B0122824023EA02030B6013F0F5
:10184000FF0F0ED1114AD2F8D81021F00101C2F8D1
:10185000D810D2F8001121F00101C2F80011D2F81D
:10186000002113F47F4F0ED1084BD3F8D82022F07B
:101870000202C3F8D820D3F8002122F00202C3F8F4
:101880000021D3F8003110BDDC23002000440258B1
:1018900008B5302383F31188FFF7C4FF002383F3D7
:1018A000118808BD10B4C26D8166036E0C6803EB2D
:1018B0005403B3FBF4F34C6814F4004F05D023F049
:1018C000070403F0070343EA4403D3608B6843F043
:1018D00040035360CB6843F0010393604C6840F2CF
:1018E0002D13234313604FF0FF3313624B6813F43F
:1018F000806F11D013F0102306D0B3F1805F07D0B2
:10190000FF2380F864300AE07F2380F8643006E02B
:101910003F2380F8643002E0FF2380F864305DF8F4
:10192000044B704708B5024611F0080301D04FF48C
:10193000807311F0010F01D043F0200311F0020F6A
:1019400001D043F0400311F0040F01D043F08003B5
:10195000302181F31188101D51680B435360936847
:1019600003B19847002383F3118808BD024A136826
:1019700043F0C003136070470010014010B582B0FF
:101980000D4C204600F0A8FA009400234FF400729A
:101990000A4904F1140000F04BF90094084B4FF48D
:1019A0000072084904F1380000F0CCF9064BE365F9
:1019B000064B236602B010BD602800206026002080
:1019C0006D190008602400200010014000E1F505B9
:1019D00008B529B1037C012B04D0FFF763FF08BDD4
:1019E0000A49F7E70A4B9842F7D10A4BD3F8F0209F
:1019F00042F01002C3F8F020D3F8182142F0100290
:101A0000C3F81821D3F81831E7E700BF34550008B0
:101A10006028002000440258F8B50546C66D3768B6
:101A2000F469346214F00F0F11D114F4807F20D0C8
:101A3000302383F31188281D6B6843F480636B6047
:101A4000AB6803B19847002383F3118811E0214666
:101A5000FFF768FFE9E7302383F31188716A95F88F
:101A600064301940284600F051FA002383F31188AE
:101A7000F46914F0200FEED117F0800F27D117F082
:101A8000400F0CD014F0400F09D0302383F311889D
:101A9000EA6C2B6D9A422CD0002383F3118814F04A
:101AA000100F04D0AA6E13690BB150699847F8BDA6
:101AB000281D6B6843F008036B60AB6803B198475F
:101AC00027F080033360002383F31188D7E714F0F5
:101AD000800FD4D0302383F3118805F1380000F053
:101AE00065F90028E4DBB062002383F31188F46910
:101AF000EDE72B6C002BCFD0281D6B6843F0100353
:101B00006B60AB6803B1984727F040073760C3E7C5
:101B10000901C9B2074A131883F8001300F01F0126
:101B2000400901238B4000F1600142F8213042F866
:101B30002030704700E100E000F01F03420901215E
:101B40009940064B02F1200C43F82C10603243F808
:101B500022100344002283F80023704700E100E0D4
:101B60002DE9F04104460F4615468368934200D2A2
:101B700085682669A169761AB54215D3B5421BD985
:101B800032463846FFF726FBA5EB06084246E168D9
:101B9000B819FFF71FFBE3684344A361A3685B1B0D
:101BA000A3602846BDE8F0812A463846FFF712FBBD
:101BB000A3692B44A361F1E72A463846FFF70AFBE5
:101BC000E368A361EAE700BF2DE9F04104460F4650
:101BD00015468368934200D2856826696069361A83
:101BE000B54215D3B5421BD932463946FFF7F2FA52
:101BF000A5EB06084246B919E068FFF7EBFAE3687F
:101C000043446361A3685B1BA3602846BDE8F08181
:101C10002A463946FFF7DEFA63692B446361F1E730
:101C20002A463946FFF7D6FAE3686361EAE700BF60
:101C300010B40060406000248460C1608161416133
:101C400011440161C361019B03625DF8044B70475D
:101C500008B543698269934212D00022AAB982680A
:101C6000013282605A1C42611970426903699A42CA
:101C700001D3C3684361002101F002F8002008BDD0
:101C80008268002AEAD00122E8E74FF0FF30F6E749
:101C900038B505460C46302383F31188AB684BB941
:101CA0002146284600F0DAFF0028F7DA002383F304
:101CB000118813E0AB68013BAB60AA69531CAB61B0
:101CC00014782A69934201D3EB68AB61EB690BB1DD
:101CD00028469847002383F31188204638BD00BF6B
:101CE0002DE9F04707460D4692469946D0F81C80EC
:101CF000302383F31188144613E04946384600F038
:101D0000ADFF70B1002383F31188AAEB0400BDE896
:101D1000F087002383F31188A41B3544302383F319
:101D20001188002CEED0224629463846FFF718FFCE
:101D300006460028E1D0B8F1000FEAD03846C04787
:101D4000E7E700BF006040608260C160816141617F
:101D500011440161C361009B0362704770B5044682
:101D60000E461546302383F31188A3684BB92946E4
:101D7000204600F073FF0028F7DA002383F3118870
:101D800013E0A368013BA36063695A1C62611E7083
:101D9000626923699A4201D3E3686361E3690BB125
:101DA00020469847002080F3118870BD42698369FE
:101DB0009A4212D00022AAB910B58268013282601C
:101DC0005A1C82611C7803699A4201D3C3688361FB
:101DD000002100F055FF204610BD8268002AEAD09D
:101DE0000122E8E74FF0FF30704700BF2DE9F047D0
:101DF00007460D4692469946D0F81C80302383F35F
:101E00001188144613E04946384600F027FF70B1A8
:101E1000002383F31188AAEB0400BDE8F0870023B8
:101E200083F31188A41B3544302383F31188002CDD
:101E3000EED0224629463846FFF7C6FE0646002861
:101E4000E1D0B8F1000FEAD03846C047E7E700BF5D
:101E5000012901D1002070476FF01300704700BFC7
:101E600008B51430FFF73CFF08BD00BF08B54FF0C0
:101E7000FF331430FFF734FF08BD00BF08B538301A
:101E8000FFF7B4FF08BD00BF08B54FF0FF3338308F
:101E9000FFF7ACFF08BD00BF08B51430FFF7F8FE30
:101EA00008BD00BF08B54FF0FF311430FFF7F0FE5A
:101EB00008BD00BF08B53830FFF750FF08BD00BFB0
:101EC00008B54FF0FF323830FFF748FF08BD00BFBC
:101ED00008B5FFF753FD08BD044B036000234360C2
:101EE0008360C36001230374704700BF4C55000832
:101EF00010B50446302383F31188FFF769FD0223F0
:101F00002374002080F3118810BD00BF38B504464B
:101F10000D46C3693BB90430636843F00403636052
:101F2000A36803B19847294604F11400FFF790FE17
:101F3000002800DB38BD201D636843F40063636044
:101F4000A368002BF6D09847F4E700BF0020704745
:101F500010B582B0446B04F58053D3F8A4381A68E6
:101F60001178042908D1217C022905D11289197917
:101F700001238B40134201D002B010BD01A904F12E
:101F80004C0002F087FC024604F58054D4F8A448C3
:101F9000019B2179206800F09FFBEDE700F580535D
:101FA000D3F8A4381A68117804291DD110B5044655
:101FB000017C02291AD15289597901238B4013429D
:101FC00001D0012013E0143002F072FB024678B118
:101FD00004F58054D4F8A4084FF4407341790068A4
:101FE00000F064FB002002E001207047012010BDDA
:101FF0000120FCE708B5406BFFF7D0FF08BD00BF2C
:1020000008B5143002F0C2FB08BD00BF08B54FF0A0
:10201000FF33143002F0BAFB08BD00BF08B54C30E6
:1020200002F0AEFC08BD00BF08B54FF0FF334C30E6
:1020300002F0A6FC08BD00BF08B5143002F086FB14
:1020400008BD00BF08B54FF0FF31143002F07EFB31
:1020500008BD00BF08B54C3002F06EFC08BD00BFE3
:1020600008B54FF0FF324C3002F066FC08BD00BFEF
:10207000704700BF70B584B00446124B0360002364
:1020800043608360C3600125057402900E4B019389
:10209000042600964FF4407300F184022946143060
:1020A00002F0E0FA0294094B019300964FF440735A
:1020B00004F69442294604F14C0002F0C3FB04B03C
:1020C00070BD00BF74550008F51F0008511F0008BF
:1020D0000A68302383F311880B790B3342F823000D
:1020E0004B79133342F823008B7913B10B3342F849
:1020F000230000F58053C3F8A418022303740020C2
:1021000080F31188704700BF38B50446037F13B1D0
:1021100090F85430BBB9201D636843F0020363603C
:10212000A36803B19847012525776FF0010104F1F9
:10213000140000F0B1FD84F854506FF0010104F177
:102140004C0000F0A9FD38BD10B50446436843F0CB
:102150000103436083680BB1043098470023237761
:1021600084F8543010BD00BF38B50446143002F076
:1021700091FA0025257704F14C0002F07DFB84F8EC
:102180005450636843F001036360A3680BB1201DE2
:1021900098472046FFF702FF38BD00BF90F8803017
:1021A00003F06003202B01D00020704790F88130AD
:1021B000212B05D0222B13D0202B09D000207047D3
:1021C0000A4B4367072383670023C36701207047D7
:1021D000064B4367072383670023C36701207047CB
:1021E000002343678367C3670120704734220020C0
:1021F00000F58053D3F8A4381A681178042923D144
:1022000030B583B00446017C022905D112891979C1
:1022100001238B40134201D003B030BD00F14C05C7
:10222000284602F009FC0028F6D001A9284602F051
:1022300031FB024604F58054D4F8A448019B21796F
:10224000206800F049FAE7E7704700BF70B582B038
:1022500001F10B0350F8234014B305460E4630231A
:1022600083F31188201D636843F008036360A3684B
:1022700003B19847B31C05EB83035B685B691B687C
:1022800083B901A904F14C0002F004FB024670B1CD
:10229000019B3146284600F01FFA002383F3118882
:1022A00002B070BD04F14C0002F004FBE9E7B31C7E
:1022B00005EB83035A6853691B68002BEDD0128A23
:1022C000013A1342E9D1002305F180023146284644
:1022D00000F002FAE1E700BF38B5133150F82140B1
:1022E00014B3302383F3118804F58053D3F8A42862
:1022F00013685279023203EB82035B689B695D6865
:1023000065B1201D636843F004036360A36803B1F3
:102310009847294604F1140002F0D6F92046FFF749
:102320003DFE002383F3118838BD00BF704700BF16
:102330000378407843EA0020704700BF10B5044698
:1023400090F8823080F88A3001F0EEFD63681B68F7
:1023500013B10121204698470323237010BD00BF0D
:1023600008B501F0C5FC08BD0123037000234360DC
:1023700009E003F10C01002240F8212003F11401CF
:1023800040F821200133072BF3D900230381438137
:10239000704700BF10B50446302383F311884160B5
:1023A000002305E09A1C04EB8202002151600133F6
:1023B000082BF7D9204601F0BDFC02232370002032
:1023C00080F3118810BD00BF08B58B1C00EB8303A0
:1023D0005A6053694BB14FF0000CC3F800C0C3F80A
:1023E00004C0C3F808C0C3F80CC0936923B100222D
:1023F0001A605A609A60DA6001F0A4FD08BD00BF5F
:1024000008B5038903F001030381438903F0010345
:102410004381012305E09A1C00EB820200215160F8
:102420000133082BF7D901F031FE08BDF8B5044699
:1024300090F8803003F07F0390F8812043EA022374
:1024400040F20232934200F00B8123D8B3F5807F33
:102450006ED010D8012B61D0022B00F0B18043B9AF
:1024600000F188034367022383670023C3670120C9
:10247000F8BD0020FCE7B3F5817F00F0DB80B3F509
:10248000407F05D190F88230012B63D00020EFE728
:102490000020EDE7B3F5006F76D022D8B3F5A06F3A
:1024A00064D0C0F0F380A3F5C063012B00F2F0808C
:1024B00043685D6890F8836090F882708430FFF71D
:1024C00037FF03463A4631462046A847002800F029
:1024D000E180426862670368A3670023E367012025
:1024E000C6E7B3F5106F15D10378042B54D094F8D8
:1024F00082304BB184F88B300423237063681B68EF
:1025000013B102212046984700236367A367E3675E
:102510000120ADE740F60242934207D1604B63676A
:102520000223A3670023E3670120A1E700209FE7C0
:1025300090F88230012B01D0002099E7B0F8883064
:1025400023F00203A0F88830002343678367C36742
:1025500001208DE7B0F8883043F00203A0F88830FE
:10256000002343678367C367012081E7B0F88030A9
:10257000B3F5A06F05D000236367A367E36701206D
:1025800076E7FFF7DBFEF6E700F18B0343670120F8
:10259000A0670023E3676BE7302383F31188FFF71D
:1025A0002FFF002383F3118884F88B3003232370DB
:1025B00063681B68002B9AD003212046984796E752
:1025C00090F8841090F98430002B09DB01F00F01A2
:1025D00001F064FD01281DD0022823D0002047E728
:1025E00001F00F0101F06CFD012803D0022809D091
:1025F00000203DE72B4B63670223A3670023E367BB
:10260000012035E7284B63670223A3670023E367B4
:1026100001202DE7234B63670223A3670023E367B1
:10262000012025E7204B63670223A3670023E367AC
:1026300001201DE790F8823073BB90F8843013F0CE
:102640000F0104D013F0800F07D101F0F7FF002332
:102650006367A367E36701200AE701F0F9FFF6E784
:1026600090F88230D3B990F8843013F00F0104D081
:1026700013F0800F07D101F0CDFF00236367A3673C
:10268000E3670120F4E601F0CFFFF6E70020EFE674
:102690000020EDE60020EBE60020E9E60020E7E67A
:1026A000A45500089C550008A055000838B5458978
:1026B00001248C40A4B22C43448101F1020E00EBB2
:1026C0008E0CDCF80440A469A260236000236360E0
:1026D00001F012FD38BD00BF38B5058901248C40DA
:1026E000A4B22C43048101F1020E00EB8E0CDCF845
:1026F00004406469A26023600023636001F09CFDD4
:1027000038BD00BF10B50446022303700023A0F8B3
:10271000883080F88A3080F88B300381438105E06F
:102720009A1C04EB8202002151600133082BF7D977
:10273000002384F87030204601F09AFB63681B6820
:1027400013B100212046984710BD00BF0378052B28
:102750000ED010B5044680F88C3005230370436812
:102760001B680BB10421984700232381638110BDAE
:10277000704700BF08B50378052B00D008BD90F85E
:102780008C30037043681B68002BF7D005219847F5
:10279000F4E700BF10B5044690F8703013B1002381
:1027A00080F8703004F18002204601F09BFC6368E1
:1027B0009B6813B12046984740B994F8803013F0D5
:1027C000600F22D12046FFF731FEF0B104F1860000
:1027D000FFF7AEFDA36F834200D9A06794F9803064
:1027E000002B24DBA36F002B43D0152384F870301B
:1027F000302383F31188A36F626F00212046FFF717
:1028000055FF002383F3118810E00021204601F0DA
:102810000BFF0021204601F0FDFE63681B6813B129
:10282000062120469847062384F8703010BDA36F18
:102830007BB1092384F87030302383F31188A36FB0
:10284000626F00212046FFF747FF002383F31188C2
:10285000ECE7142384F87030302383F311880023CD
:102860001A4619462046FFF721FF002383F31188FB
:10287000DCE70B2384F87030302383F311880023C6
:102880001A4619462046FFF727FF002383F31188D5
:10289000CCE700BF10B5044690F87030152B28D84F
:1028A000DFE803F03F27272727273F27270B183884
:1028B00027272727272727273F3F8630FFF738FD81
:1028C000A36F834206D2E268128AB3FBF2F102FBE5
:1028D00011337BB1142384F87030302383F31188D3
:1028E00000231A4619462046FFF7E0FE002383F333
:1028F000118810BD302383F3118800231A4619462E
:102900002046FFF7E9FE002383F311880A2384F8A9
:102910007030EEE7C36F03B19847002384F870303E
:10292000E7E7002101F080FE0021204601F072FE61
:1029300063681B6813B1062120469847062384F874
:102940007030D6E710B5044690F87030152B1AD8C1
:10295000DFE803F026191919191926191926262650
:1029600019191919191919191A0B0B2380F8703034
:10297000302383F3118800231A461946FFF7ACFE73
:10298000002383F3118810BDC3689B695B68002B2B
:10299000F9D1C36F03B19847002384F87030F2E790
:1029A000002101F041FE0021204601F033FE636862
:1029B0001B6813B1062120469847062384F870301F
:1029C000E1E700BF0023037503691B68996882680B
:1029D0009142FAD203605A684260106058607047B2
:1029E00008B50846302383F311880B7D052B15D8D5
:1029F000DFE803F0031414070F0B002383F311889F
:102A000014E08B6900221A6008E08A699368013338
:102A1000936042680368136042685A604FF0FF3366
:102A20008361FFF7CFFF002383F3118808BD00BF48
:102A30000023037503691B68996882689142FAD87C
:102A400003605A68426010605860704708B5FFF72D
:102A5000B9FF08BD38B50A4BDD6828751C682268C7
:102A60001A60536001222275DC60A368934204D08F
:102A700029462046FDF7C6FC38BD00F0A7FEF7E763
:102A8000E02A002030B587B004460C4BDD68B1F178
:102A9000FF3F0FD02B460A4A684600F085F92046D2
:102AA000FFF7D8FF009B13B1684600F08BF9A869C7
:102AB00007B030BDFFF7CEFFF9E700BFE02A0020E6
:102AC000E129000838B504460E4BD868A161A26818
:102AD00083689A420ED9FFF7ABFF05468368012B46
:102AE0000CD001232375074BDC6029462046FDF7F7
:102AF00089FC38BD2046FFF765FFFAE700F068FE65
:102B0000EFE700BFE02A0020044BDA681B689868F2
:102B10009368984294BF002001207047E02A00206B
:102B200038B50B4BDD681C6822681A6053600122BF
:102B30002275DC60AB68934207D02846FFF778FF28
:102B400001462046FDF75EFC38BD00F041FEF4E78B
:102B5000E02A002008B50D4B01221A70002373B142
:102B600001F0AEFF01F0DAFF09490A4802F0BAF8B5
:102B7000064B02221A70002383F3118808BD034A12
:102B800002EB8302002151600133E8E7382B00207B
:102B9000A8550008E02A002008B500F04DF908BD4E
:102BA000401A521A90422CBF00200120704700BFEB
:102BB00038B5064B5D684419044B586822462946CF
:102BC000FFF7EEFF0028F7D138BD00BF001000E08E
:102BD0008B6002230B7500234B7508610846704714
:102BE00008B58168A1F1840341F8143C026941F8F9
:102BF000442C426941F8402C044A41F8242CC36813
:102C0000026820390248FFF7E3FF08BD1D040008F1
:102C1000E02A002008B5FFF7E3FFFFF717FF08BD24
:102C200008B5034BDB6898610F20FFF713FF08BD61
:102C3000E02A002008B5302383F31188FFF7F0FF66
:102C400008BD00BF08B50146302383F31188082072
:102C5000FFF718FF002383F3118808BD08B5074B61
:102C6000DB6841B1186042685A6013604360042019
:102C7000FFF708FF08BD4FF0FF30FBE7E02A002018
:102C800008B503460068834205D002681A605360A5
:102C90008161FFF7DBFE08BD38B504460D4605E04F
:102CA000036823605C608561FFF7D0FE2068844282
:102CB000F6D138BD10B4036801E0121B1B689C6894
:102CC000A242FAD88A600B605C684C60216059604F
:102CD0009968891A99604FF0FF3383605DF8044B5F
:102CE000704700BFF8B515461C46C2608B6048604F
:102CF00003680B6059600160092C00D80A24C06881
:102D0000204401F0C7FE0A2701F0BEFE0646431B21
:102D10009C4202D90A2F07D8F8BD7C1C281901F063
:102D2000C9FE27463546EFE7012002F01BF8F3E71E
:102D300070B504460D46092900D80A250A266019EF
:102D400001F0B8FE01F0A0FE041BA54202D90A2E34
:102D500004D870BD013635460446F0E7012002F084
:102D600001F8F6E7F8B505460F46164601F08CFE69
:102D70002B689D420DD0EC68041B341900D33446F7
:102D80009B68A3420CD8224639462846FFF792FF9B
:102D9000F8BD3346024639462846FFF7A3FFF7E75A
:102DA0003146FFF7C5FFEEE708B50361C2600023B7
:102DB00043610A4601460248FFF7D4FF08BD00BF41
:102DC000F02A002008B51B4B1B69984210D04268BE
:102DD0000368136042685A600268936881680B4414
:102DE000936000230360134B4FF0FF329A6108BDDC
:102DF0001968104A134643F8101F4B600021016008
:102E000012699A4212D0936881680B44936001F072
:102E10003BFE084AD369A0EB030C12699168614537
:102E2000E5D91B1A1944FFF783FFE0E701F03CFEE8
:102E3000DDE700BFE02A0020F8B50BE0002383F3B4
:102E40001188E368216920469847302383F311886D
:102E50006369CBB9244D2C6901F016FEED69411B65
:102E6000A2688A4232D815441F4BDD61616822682E
:102E70000A60616851600022226053F8102F9A4264
:102E8000DCD101F011FED9E701F0FEFD0746461B3B
:102E90006269B2420ED32B1A1A44134B53F8101F17
:102EA00099420CD0961900D2324621460F48FFF7BE
:102EB00001FFCFE7022001F055FF0022EDE71346A6
:102EC0003A4621460948FFF70DFF0CE0064A52F842
:102ED000101F914207D0044AD061A2682B1A99189A
:102EE000A160FFF725FFF8BDE02A0020F02A0020AE
:102EF00000207047FEE700BF704700BF4FF0FF3073
:102F0000704700BF02290BD0032903D0012909D142
:102F100006487047032A07D8054800EBC2007047EF
:102F2000044870470020704700207047645600082E
:102F30003C2200201856000830B59BB005460846D4
:102F4000144601A900F0D8F801A8FEF765F95FFA68
:102F500080FC431C5B002B606C6023700323637058
:102F600000230CE0591C03F168026A4412F8642C37
:102F700004F811205B0003330022E254CBB2634516
:102F8000F0D31BB030BD00BF08B5302383F31188E8
:102F90000348FFF72DF9002383F3118808BD00BF14
:102FA000D02D002008B590F8803003F01F02012AD0
:102FB00011D003F06003202B0AD1B0F884303BB964
:102FC00090F88130212B10D0222B1ED0202B14D032
:102FD000FFF7E4F808BD90F881200B2AE9D100231F
:102FE00043678367C3670120F4E70B4B43670723FD
:102FF00083670023C3670120ECE7074B4367072380
:1030000083670023C3670120E4E7002343678367E6
:10301000C3670120DEE700BF5C22002010B5052950
:1030200017D8DFE801F017160317172104463023DD
:1030300083F31188114A0121FFF7C6F9104A0221D2
:103040002046FFF7C1F90F48FFF78EF8002383F3FE
:10305000118810BD302383F311880A48FFF754F814
:10306000002383F31188F4E7302383F311880548A4
:10307000FFF76AF8002383F31188EAE7F0550008A8
:10308000CC550008D02D002038B50B4D0B4C2A46EE
:103090000B492046FFF750FF05F1CA02094904F128
:1030A0000800FFF749FF05F5CA72074904F110004F
:1030B000FFF742FF38BD00BF702B002044220020E4
:1030C000B8530008C4530008D053000870B5044634
:1030D0000D460846FEF7A0F8064600E001342378C6
:1030E00043B1F2B229462046FEF77EF80028F5D11A
:1030F000012000E0002070BD70B506460C46FEF7CA
:103100008BF8C5B225493046FFF7E0FF08B1053519
:10311000EDB223493046FFF7D9FF08B11035EDB2C3
:10312000632D23D931462046FDF786F934E01D4B47
:1031300007CB20606160A26007360C3416E01A49A4
:103140005A5C12091948855C224602F8025B595CF8
:1031500001F00F01415C61700133DBB214460B2BAF
:10316000EDD9083602E0013604F8015B35788DB1FF
:10317000252DF8D1072209493046FEF735F80028F9
:10318000D5D0082206493046FEF72EF80028EAD1AD
:103190000023E4E70023237070BD00BFDC53000868
:1031A000D0530008E453000800E8F11FF45300086E
:1031B000BFF34F8F054B1B6913F0070FFAD1034B79
:1031C000D3F8103113F0070FF4D1704700200052EC
:1031D000034B4FF0FF325A61C3F81421704700BF10
:1031E0000020005208B5104B1B7803B108BDFFF753
:1031F000DFFF0E4BDB6813F0010F05D00B4B0C4AC1
:103200005A6002F188325A60084BD3F80C3113F03F
:10321000010FEBD0054B064AC3F8042102F18832B6
:10322000C3F80421E2E700BF7846002000200052E6
:1032300023016745002301E0043001338B4205D2AE
:103240000268B2F1FF3FF7D00020704701207047BD
:103250002DE9F04105460E4600F17843B3F5801F95
:103260000FD2184CDFF86C80174FFFF7A1FF4FF01B
:10327000FF33C8F800303B6843F002033B60002294
:103280000EE0124CDFF85080114FEEE7236813F088
:10329000050FFBD156F8043B45F8043B0132D2B28E
:1032A000072AF3D9BFF34F8FFFF782FF4FF0FF33A9
:1032B000C8F800303B6823F002033B600120BDE802
:1032C000F08100BF102000520C200052102100524B
:1032D0000C210052142000521421005208B5144B46
:1032E0001B781BBB134B1B6913F0040F04D0114A4E
:1032F000D36843F04003D3600E4BD3F8103113F082
:10330000040F06D00B4AD2F80C3143F04003C2F848
:103310000C31FFF74DFF074BDA6842F00102DA602B
:10332000D3F80C2142F00102C3F80C2108BD00BF04
:1033300078460020002000522DE9F04112F01F0FC6
:1033400042D104460D46164610F01F0F02D04FF032
:1033500000083BE0FFF746FF13E01E4AC2F85C029C
:103360002030203B002BF8DCBFF34F8FBFF36F8F73
:10337000202229463846FDF7BDF810BB2034203EF8
:1033800020351F2E18D92746202229462046FDF732
:10339000B1F80028F2D008212046FFF74BFF804605
:1033A000A0B129462046FFF753FF804630B1BFF356
:1033B0004F8F20462023D5E74FF00108FFF78EFFFF
:1033C00004E04FF00008F9E74FF000084046BDE880
:1033D000F08100BF00ED00E00F2803D800F5806009
:1033E00040047047002070474FF40030704700BF22
:1033F000102070470F2811D838B50546FFF7ECFFAD
:1034000004462846FFF7F0FF30B12368B3F1FF3FD1
:1034100006D104380434F7E7012038BD0020704796
:103420000020FAE70F2801D90020704738B504467C
:10343000FFF7BEFEFFF7D6FEFFF7CAFE072C25D822
:10344000204D4FF0FF332B61FFF7B2FE230243F014
:103450002403EB60EB6843F08003EB60194B1B69BE
:1034600013F0040FFAD1FFF7A3FE2046FFF7B4FFD5
:1034700005462046FFF7B8FF0146284600F07CF9D4
:10348000FFF72CFF2046FFF7B5FF38BD0D4D4FF07D
:10349000FF33C5F81031FFF78BFEA4F108031B02C0
:1034A00043F02403C5F80C31D5F80C3143F0800308
:1034B000C5F80C31034BD3F8103113F0040FF9D1D8
:1034C000D1E700BF0020005208B5FFF735FF08BD67
:1034D00008B548B1094B1B7803B108BDFFF782FE60
:1034E000064B01221A70F8E7044B1B78002BF4D02E
:1034F000024B00221A70FFF7F1FEEEE7784600203B
:103500002DE9F047002800F093800D46064611F0A3
:103510000D0911D0202715F0080804D0731E33427E
:1035200040F089803746B9F1000F02D01F3626F0EF
:103530001F061DB1012424E00827ECE73A46314676
:10354000002001F00FFB824600285CD1F2E7B8F1C1
:10355000000F08D004EB4402384B03EB82039B6856
:1035600013F0080F0BD004EB44003A463146344BBD
:1035700003EBC00001F0F6FA8246002843D1013483
:10358000E4B2052C24D815F0010F08D004EB440256
:103590002A4B03EB82039B6813F0010FEFD015F069
:1035A000040F08D004EB4402244B03EB82039B6816
:1035B00013F0040FE3D015F0020FC8D004EB44025F
:1035C0001E4B03EB82039B6813F0020FBFD1D6E7BB
:1035D000B9F1000F1FD10124052C0DD804EB4400D4
:1035E0003A463146164B03EBC00001F0BBFA824667
:1035F00048B90134E4B2EFE73A463146002001F021
:10360000B1FA824638B1324600215046FDF70EFE2F
:103610005046BDE8F0873A4631460A4801F0A2FA22
:1036200082460028F4D032460021FDF7FFFDEFE787
:103630004FF0000AECE74FF0000AE9E78056000877
:10364000944600207C46002008B50121FFF758FF72
:1036500008BD00BF10B5002302E000221A60043349
:10366000B3F5806FF9DB01240FE0114B04EB44014B
:1036700003EB81020846526853F821100D4B03EB0F
:10368000C00001F05BFA0134E4B2052CEDD94FF42F
:10369000C05464B12046FFF7D7FF014618B9C4EB08
:1036A000C404E408F5E72246034801F047FA10BDD8
:1036B00080560008944600207C46002018B108B5CA
:1036C00001F0C8FA08BD704709E000F1010C064A94
:1036D00052F8202041F8042B1A465FFA8CF0531E52
:1036E000DBB2002AF1D170475040005810B4114BA2
:1036F0001B6F13F4004F06D10E4B1C6F1C671C6F21
:1037000044F400441C670C4C236843F4807323602A
:1037100009E000F1010C51F8044B084A42F820403E
:103720001A465FFA8CF0531EDBB2002AF1D15DF825
:10373000044B70470044025800480258504000585B
:1037400000B583B0012201A90020FFF7BDFF019859
:1037500003B05DF804FB00BF10B582B00446FFF76C
:10376000EFFFA04201D102B010BD0194012201A9D6
:103770000020FFF7BBFFF6E70144BFF34F8F03E0E4
:10378000054BC3F85C0220308842F9D3BFF34F8F5A
:10379000BFF36F8F704700BF00ED00E0044B1B6864
:1037A00023B9044BD3F8D024014B1A60704700BFF3
:1037B000244700200040025808B5FFF7EFFF024BF6
:1037C0001868C0F3806008BD24470020704700BF20
:1037D000704700BFEFF30983683305494A6B22F055
:1037E00001024A6383F30988002383F31188704739
:1037F00000EF00E0302080F3118862B60D4BD968ED
:1038000021F4E0610904090C0B4A0A43DA60D3F899
:10381000FC2042F08072C3F8FC20084A0849C2F834
:10382000B01F116841F0010111602022DA7783F89E
:103830002200704700ED00E00003FA05001000E0F0
:1038400055CEACC5302383F31188104B5B6813F45D
:10385000006F03D1002383F31188704710B5F1EE98
:10386000103AEFF30984683C4FF08073E361084B32
:10387000DB6B236684F30988FFF746F910B1054B2B
:10388000A36110BD044BA361FBE700BF00ED00E0A6
:1038900000EF00E02F04000832040008BFF34F8F50
:1038A000BFF36F8F084B0022C3F85022BFF34F8F36
:1038B000BFF36F8F5A6942F400325A61BFF34F8FE2
:1038C000BFF36F8F704700BF00ED00E010B4154BE1
:1038D0000022C3F88420BFF34F8FD3F88040C4F395
:1038E0004E3000E01846C4F3C90243F6E07303EA21
:1038F000401343EA82730B49C1F860321346013A20
:10390000002BF2D1431E0028ECD1BFF34F8F4B693F
:1039100043F480334B61BFF34F8FBFF36F8F5DF87C
:10392000044B704700ED00E010B4124B0022C3F8C6
:103930008420BFF34F8FD3F88040C4F34E3000E0B3
:103940001846C4F3C90243F6E07303EA401343EA9E
:1039500082730849C1F86C321346013A002BF2D148
:10396000431E0028ECD1BFF34F8FBFF36F8F5DF87C
:10397000044B704700ED00E008B5FFF78FFFFFF73D
:10398000A5FF08BDFEE700BF08B5104B104903E0D6
:1039900051F8042B43F8042B0E4A9342F8D302E06B
:1039A000002243F8042B0C4A9342F9D3FFF7BCFFE3
:1039B000BFF34F8FBFF36F8F084B0022C3F8502225
:1039C000BFF34F8FBFF36F8F08BD00BF9848002033
:1039D0009C580008984800209848002000ED00E01E
:1039E000D0F890200023D0F894108968994232D3FF
:1039F00010B415E003F148014901545844F08044E3
:103A0000545013E002EB43114FF0FF34C1F8084962
:103A1000C1F8084B0133D0F894108968994213D348
:103A200003F14801490151580029E3DB03F1580132
:103A3000490151580029E5DA03F158014901545868
:103A400044F080445450DDE74FF00113C2F81C38B5
:103A50005DF8044B70474FF00113C2F81C387047F3
:103A6000D0F894301B68C0F8983070470346D0F8FF
:103A700098000144C3F89810704700BF01E0043A71
:103A800004310B680360042AF9D8704710B44FF072
:103A9000000C644601E00CF1010C944509D21CF0C5
:103AA000030F00D104689C45F5D201F8014B240AAC
:103AB000F1E75DF8044B704770B5D0F89060336A59
:103AC000C3F30A1503F00F0103F4F013B3F5802FCD
:103AD0000ED0B3F5402F0AD1023100EB81035968B3
:103AE00008232A46096A06F58050FFF7CFFF70BD0C
:103AF000023100EB8104636899690A684B68D31A44
:103B00002A46896806F58050FFF7C0FF63689A6906
:103B100093682B44936063689A6953682B4453609D
:103B2000E5E700BFF8B506460D4629E0D6F8902037
:103B3000D2F83438012000FA05F523EA0503C2F86B
:103B40003438F8BDD6F8907007EB4513D3F8183920
:103B50009BB2B4EB830F22D8681C2246896807EB1E
:103B60000030FFF78BFFAB1C06EB83035A685169EB
:103B70008A6822448A605B685A69536823445360A8
:103B8000AB1C06EB83035A68516948680B6898427E
:103B9000CCD21B1A148A9C42D4D31C46D2E70020F4
:103BA000CFE700BF70B50546D0F89060002404E070
:103BB0002146284698470134E4B2D5F894309B68F2
:103BC0009C421ED8224604F158035B01F35803F4CB
:103BD0004023B3F5802FEED104F158035B01F35875
:103BE000002BE8DA69890123A340DB431BB20B40B9
:103BF0006B81023205EB82025368DB68002BD7D160
:103C0000D9E770BD08B5D0F89020890141F02001B6
:103C10001161136913F0200FFBD11220FEF7C8FFCA
:103C200008BD00BFF8B50746D0F89050002404E066
:103C30002146384698470134E4B22146D7F89430FB
:103C40009B689C422ED8264604F148035B01EB5842
:103C500003F44023B3F5802FEDD104F148035B0159
:103C6000EB58002BE7DA04F148035B01EA5842F015
:103C70009042EA5006F148035B01EB58002BF9DB58
:103C80003846FFF7BFFF3A890123B340DB431BB23D
:103C900013403B81023607EB860673689B68002B56
:103CA000C6D1C8E7F8BD00BF10B5D0F89040236971
:103CB000002BFCDA012323610C20FEF779FF236936
:103CC00013F0010FFBD11220FEF772FF2369002BC6
:103CD000FCDA10BD08B5D0F89020102313611369E9
:103CE00013F0100FFBD11220FEF762FF08BD00BFDA
:103CF00010B50A4C2046FEF737FB094BC4F890304C
:103D0000084BC4F89430084C2046FEF72DFB074BB7
:103D1000C4F89030064BC4F8943010BDDC47002046
:103D200000000840D456000840470020000004402E
:103D3000C856000870B5D0F890600378012B00D009
:103D400070BD0446434B984225D0434B9C4249D01A
:103D50000025C6F8005EC02333604FF40413B3633C
:103D60002046FFF7A1FFB5602046FFF739FEC6F8F1
:103D70001058C6F81458C6F81C586368DB68002B46
:103D800065D0364BB3614FF0FF337361B36843F0D6
:103D90000103B360D4E7324BD3F8D82042F000627D
:103DA000C3F8D820D3F8002142F00062C3F8002104
:103DB000D3F80021D3F8802042F00062C3F88020BD
:103DC000D3F8802022F00062C3F88020D3F880303E
:103DD0000E216520FDF79CFE224BF360224BC6F8B6
:103DE0000038B2E71E4BD3F8D82042F00072C3F877
:103DF000D820D3F8002142F00072C3F80021D3F894
:103E00000021D3F8802042F00072C3F88020D3F85C
:103E1000802022F00072C3F88020D3F88020D3F8ED
:103E2000D82022F08062C3F8D820D3F8002122F0F5
:103E30008062C3F80021D3F800310E214D20FDF738
:103E400067FE084BF360084BC6F8003880E7074B65
:103E5000B36198E7DC47002040470020083C30C0B1
:103E6000004402584014004003002002003C30C0CF
:103E700038B50546D0F890400021FFF7C3FE002377
:103E8000C4F834384FF00112C4F81C2812E003F1D2
:103E9000480252014FF00061A15003F15802520153
:103EA000A15004EB43124FF0FF31C2F80819C2F8D9
:103EB000081B0133D5F8942092689A42E7D228462D
:103EC000FFF7CEFDD5F894301B6863622846FFF7F4
:103ED00001FFD4F8003823F4FE63C4F80038A26967
:103EE0000E4B1343A3610923C4F81038C4F81438E7
:103EF0000B4BEB604FF0C043C4F8103B094BC4F8C8
:103F0000003B0022C4F81029C4F8003910212846CB
:103F1000FFF7ACFD40F48010A06238BD10000C002B
:103F2000E056000840800010D0F89020D2F8003809
:103F300023F4FE6390F88A1043EA0113C2F80038B4
:103F4000704700BF2DE9F04105460C46D0F890605F
:103F50008B1C00EB83035B681B6803F00303032BDC
:103F600055D8DFE803F0025A5658434F06EB441386
:103F70000022C3F8102BA31C05EB83035B689A692E
:103F8000002A4CD05A8A3A4304F158035B01F2509C
:103F9000D6F81C3804F1100101228A401343C6F8F8
:103FA0001C3806EB44130022C3F81029A31C05EBB0
:103FB00083035B685A69002A43D0198A89089B8B5E
:103FC000012B01D903FB01F14FEA01482846FFF715
:103FD0004DFD48EA000004F13F0306EB83035860FF
:103FE00021462846FFF70EFE47EA8457A31C05EB3F
:103FF00083035B681B8A1F4304F148035B01F7508E
:10400000D6F81C380122A2401343C6F81C38BDE87C
:10401000F0811A4FAAE71A4FA8E71A4FA6E704F152
:1040200058035B01F25822F40042F250D6F81C38D3
:1040300004F1100101228A4023EA0203C6F81C3869
:10404000AFE704F13F0306EB83030F4A5A602146B2
:104050002846FFF7D7FD04F148035B01F25822F42C
:104060000042F250D6F81C380122A24023EA020393
:10407000C6F81C38CBE700BF008000100080081095
:1040800000800C10008004100004000210B50446EB
:10409000FFF7E6FC2046FFF7A3FC10BDD0F89030F8
:1040A000583149015B5813F4004F04D013F4001F3A
:1040B00003D102207047002070470120704700BFE5
:1040C000D0F89030483149015B5813F4004F04D0C8
:1040D00013F4001F03D10220704700207047012015
:1040E000704700BF023100EB810043681B6A19680A
:1040F0005B6811605360704710B48B1C00EB830346
:104100005B689B691A68DA6019B9402A01D94022B4
:104110001A601A6801F1020C00EB8C0CDCF8043018
:104120005B8A1A44013AB2FBF3F202FB03F3033356
:1041300023F0030343EAC24343F0C043D0F8902086
:1041400002EB4112C2F8103BDCF804301B6803F0AC
:104150000303012B0AD0D0F890205831490153585D
:1041600043F0044353505DF8044B7047D0F890304F
:10417000D3F8082812F4807F07D001F158025201C9
:104180009C5844F080549C50E5E701F158025201DC
:104190009C5844F000549C50DDE700BFF8B507463A
:1041A0000C46D0F8906006EB4113D3F8085BC3F8D7
:1041B000085B15F0080F0AD0D6F8143813F0080F72
:1041C00005D08B1C00EB83035B685B68984715F098
:1041D000010F21D0D6F8143813F0010F1CD0A31C06
:1041E00007EB830359688A6954B95368488AB3FB5B
:1041F000F0F500FB15331BB91068D36898420CD357
:104200007A890123A340DB431BB213407B81CB6837
:1042100013B1214638469847F8BD1B1A1360002594
:104220005560302383F3118821463846FFF764FF39
:1042300085F31188F0E700BF10B48B1C00EB8303FB
:104240005B685B691A68DA602ABBD0F8903003EBD0
:1042500041134FF40022C3F810298B1C00EB830399
:104260005B681B6803F00303012B2ED0D0F890404D
:1042700001F148035B01E25842F00442E250D0F8F9
:104280009000D0F8343801228A401343C0F8343803
:104290005DF8044B704719B9402A01D940221A60D1
:1042A0001B688A1C00EB82025268148A1A19013AB0
:1042B000B2FBF4F2D0F8904043EAC24343F000531B
:1042C00004EB4114C4F81039C7E7D0F89030D3F8A4
:1042D000082812F4807F07D001F1480252019C584F
:1042E00044F080549C50C1E701F1480252019C58AF
:1042F00044F000549C50B9E72DE9F04107460C46C4
:10430000D0F8906006EB4113D3F80859C3F8085968
:1043100015F0010F19D0D6F8103813F0010F14D092
:104320008B1C00EB830359684B691868DA6890426C
:1043300016D33A890123A340DB431BB213403B81D0
:104340008B6813B121463846984715F0800F05D089
:10435000D6F834280123A3401A4211D1BDE8F081D8
:10436000121A1A604FF00008C3F80480302383F358
:10437000118821463846FFF75FFF88F31188E4E78C
:1043800021463846FFF7CEFBE8E700BF70B506468A
:10439000D0F890506C69AB691C406C6114F4805F7C
:1043A00040F08480002CC0F2848014F4006F40F050
:1043B000958014F4005F0BD0D5F8083813F0060F81
:1043C00040F09380EB6823F4705343F41053EB6098
:1043D00014F0080F0DD07368DB68002B00F08C80A0
:1043E0003378052B00F08D807368DB680BB13046A5
:1043F000984714F4801F40F0938014F4001F40F09D
:10440000938014F0100F40F09380D5F8185814F4EE
:10441000002F23D015F4803F40F08E8015F4003F2C
:1044200040F08F8015F4802F40F0908015F4002F1D
:1044300040F0918015F4801F40F0928015F4001F29
:1044400040F0938015F4800F40F0948015F4000F35
:1044500040F0958015F0807F40F0968014F4802F16
:1044600023D015F0010F40F0948015F0020F40F0BA
:10447000958015F0040F40F0968015F0080F40F07D
:10448000978015F0100F40F0988015F0200F40F045
:10449000998015F0400F40F09A8015F0800F40F0A1
:1044A0009B8015F4807F40F09C8070BDFEF72AF958
:1044B000FBE7D5F8003E13F0030F05D0D5F8003E1A
:1044C00023F00303C5F8003ED5F8043823F00103B8
:1044D000C5F804383046FEF74DF966E73046FFF779
:1044E0007FFA3046FEF732F963E7EB6823F4705346
:1044F00043F4A053EB606BE7AB6923F00803AB61B7
:104500006EE7D5F8003E13F0030F05D0D5F8003E56
:1045100023F00303C5F8003E3046FEF72BF963E7AE
:104520003046FFF77FFB68E73046FFF73BFB68E765
:104530003046FFF7C1FA68E700213046FFF72EFE4C
:104540006CE701213046FFF729FE6BE70221304678
:10455000FFF724FE6AE703213046FFF71FFE69E7F5
:1045600004213046FFF71AFE68E705213046FFF7C1
:1045700015FE67E706213046FFF710FE66E70721C4
:104580003046FFF70BFE65E708213046FFF706FED1
:1045900064E700213046FFF7AFFE66E701213046B1
:1045A000FFF7AAFE65E702213046FFF7A5FE64E7A4
:1045B00003213046FFF7A0FE63E704213046FFF7F2
:1045C0009BFE62E705213046FFF796FE61E7062174
:1045D0003046FFF791FE60E707213046FFF78CFE7B
:1045E0005FE708213046FFF787FE5EE708B503481E
:1045F000FFF7CCFEFFF726F908BD00BFDC4700201F
:1046000008B50348FFF7C2FEFFF71CF908BD00BF5D
:1046100040470020D0F8902058314901535843F4C6
:1046200000135350704700BFD0F890204831490123
:10463000535843F400135350704700BFD0F89020F4
:1046400058314901535823F400135350704700BFA9
:10465000D0F8902048314901535823F400135350A7
:10466000704700BF30B4029C0060406001720021BE
:10467000C16042610261043304FB03258561C361AB
:10468000046242628162C162039B0363049B4363D1
:1046900030BC704708B50022C260416A41610161C7
:1046A0008262C2626FF00101FEF7F6FA08BD00BF38
:1046B00003694269934201D0181D7047C268002AFD
:1046C000FAD00020704700BF08B503691960C368BD
:1046D0000133C3600369C269134403618269934271
:1046E00001D3436A03610021FEF7CAFA08BD00BF87
:1046F00038B504460D46E36843B9237A73B92946B1
:104700002046FEF7ABFA0028F5DA06E06269131DD1
:10471000A36212681344E362002038BD6FF0010009
:10472000FBE700BF08B5C368013BC3604369C269CA
:10473000134443618269934201D3436A4361002376
:104740008362036B03B1984708BD00BF38B50446C8
:10475000302383F31188836A5BB1A36A13F8015B8A
:10476000A362E26A93420DD2002383F311882846A4
:1047700038BDFFF7BDFF05460028EED0002383F3C8
:104780001188F4E72046FFF7CDFFEDE72DE9F84368
:1047900004460F4690469946302383F3118800263D
:1047A00031E049462046FFF7A3FF78B3002383F3A7
:1047B00011883046BDE8F883DCF80050DCF80400CE
:1047C000DCF80820DCF80C30CEF80050CEF80400FD
:1047D000CEF80820CEF80C300CF1100C0EF1100EB3
:1047E0008C45E9D14037A36A4033A3624036A26AC0
:1047F000E36A9A4222D2002383F311884645D8D235
:10480000302383F31188A36A002BCAD0E36AA16A1C
:104810005B1AA8EB06059D4200D31D46402D03D927
:104820008C46BE464031C7E72A463846FCF7D2FCE4
:104830002F44A36A2B44A3622E44D8E72046FFF7F7
:1048400071FFD8E710B4019C006040600172C46041
:1048500042610261043303FB04218161C36104628C
:10486000426200238362C362029B0363039B436330
:104870005DF8044B704700BF08B5026AC260426A27
:104880004261026100228262C2626FF00101FEF7A2
:1048900003FA08BD026943699A4204D01B680B60A1
:1048A000406904307047C268002AF7D000200860D1
:1048B000704700BF08B5C3680133C3604369C2696C
:1048C000134443618269934201D3436A43610021E7
:1048D000FEF7D6F908BD00BF38B504460D46E368BB
:1048E00043B9237A73B929462046FEF7B7F9002861
:1048F000F5DA06E023691A1DA262E2691344E36255
:10490000002038BD6FF00100FBE700BF08B5036968
:104910001960C368013BC3600369C2691344036142
:104920008269934201D3436A036100238362036B6C
:1049300003B1984708BD00BF38B504460D46302383
:1049400083F31188836A5BB1A36A1D70A36A013384
:10495000A362E26A93420CD2002080F3118838BD32
:104960001146FFF7B9FF0028EED0002383F311882A
:10497000F5E7E16904392046FFF7C8FFECE700BF1F
:104980002DE9F84304460E4617469846302383F334
:10499000118800252DE041462046FFF79DFF58B3C2
:1049A000002383F311882846BDE8F883DCF800E093
:1049B000DCF80410DCF80820DCF80C30C0F800E06B
:1049C00041608260C3600CF1100C1030CC45EDD119
:1049D0004036A36A4033A3624035A26AE36A9A4232
:1049E00023D2002383F31188BD42DCD2302383F32A
:1049F0001188A36A002BCED0E36AA06A1B1AA7EB2A
:104A00000509994500D39946B9F1400F03D9B44639
:104A100006F14009CAE74A463146FCF7DBFB4E4443
:104A2000A36A4B44A3624D44D7E7E16904392046A9
:104A3000FFF76CFFD5E700BF03694269934201D0DD
:104A400000207047C268BAB1826ABAB1D21A043A79
:104A500001D1002070471A60C368013BC36003693D
:104A6000C269134403618269934201D3436A0361BB
:104A700000238362012070470020704700207047A8
:104A800008B500F07FFA08BD014B586A704700BFB7
:104A9000000C0040034B586300221A610222DA60C6
:104AA000704700BF000C0040014B0022DA607047E5
:104AB000000C0040014B5863704700BF000C0040E1
:104AC000024B034A1A60034A5A6070477848002034
:104AD000984800200000022010B40A4B5C68201A9D
:104AE00049420840821A1B689A4206D3A24206D85D
:104AF000044B5A605DF8044B70470020FAE7002031
:104B0000F8E700BF7848002008B5302383F3118808
:104B1000FFF7E2FF002383F3118808BD08B50548BD
:104B2000054B036000234360836001210C3000F0DB
:104B300021F908BD80480020094B000808B5CB1DAD
:104B400023F00703591A521A002101604360816063
:104B50001960083AD2085A6001210C3000F00AF9B5
:104B600008BD00BF2DE9F8430F46154680460028D2
:104B700038D0072D00D80825FE1DF60808F10C09CD
:104B8000484600F013F908F1040421462468002C7B
:104B90004AD0631907336A421340083B6068421CDD
:104BA00004EBC2029A42F0D903F1080CA2EB0C020A
:104BB0004FEAE20CB6EBE20FE7D89C4215D204F1C3
:104BC00008029A1AD2106260B44521D9701C03EB16
:104BD000C001ACEB0602013A4A60226843F830207B
:104BE000216015E0DFF86880C3E7B04218D00136D5
:104BF00004EBC602236844F836306368013304EBE3
:104C0000C30302F108001B1ADB1053600A6023463D
:104C10005F601C4644F8088B484600F0D1F813E06A
:104C200023680B602346F3E7484600F0C9F8D8F83C
:104C300000304BB108222946F0009847044618B1CD
:104C400040F8088C40F8047C2046BDE8F88300BF9B
:104C500080480020F8B50646A0F1080450F8087C0A
:104C60003D1D50F8043C0733DB0840F8043C0C378A
:104C7000384600F09BF82B4604E01A683AB194429B
:104C800005D31B689D42F8D0A342FAD2F5E746F857
:104C9000082C1C6056F8041C4A1C04EBC20256F88F
:104CA000080C824209D059684A1C03EBC2029442A4
:104CB0000CD0384600F084F8F8BD42681144013148
:104CC00046F8041C026846F8082CECE756F8042C59
:104CD00011440131596056F8082C1A60E9E700BF09
:104CE000FEE700BF70B586B004460E46194B58600B
:104CF000002585620163FEF77DFD24606460A56088
:104D0000E56204F11003236163614FF0FF33A36197
:104D1000E561FFF7B9FE02462B46C4E90823256585
:104D200080230D4A04F134012046FDF751FFE06075
:104D300001230375094A009272680192B2680292D7
:104D40000393074B049305956846FDF763FF06B090
:104D500070BD00BF382B0020085400081054000814
:104D6000E14C0008024AD36A0343D362704700BF94
:104D7000E02A002000604060816070478368013B4A
:104D80008360002B01DB0020704710B5064BDC6808
:104D9000A0612060436863601C6044600520FDF7EB
:104DA00059FEA06910BD00BFE02A002008B53023DD
:104DB00083F31188FFF7E2FF002383F3118808BD16
:104DC00008B5302282F31188826801328260002A9D
:104DD00003DD002383F3118808BD034600680268E1
:104DE0001A6053600021FDF76DFEF2E74B684360E7
:104DF0008B688360CB68C3600B6943614B69036256
:104E00008B6943620B680360704700BF10B52A4B83
:104E1000D3F8882040F2FF710A43C3F88820D3F802
:104E200088206FF30A02C3F88820D3F88820D3F8CB
:104E3000E0200A43C3F8E020D3F808210A43C3F86E
:104E40000821D3F808311D4C21461D48FFF7CEFF3D
:104E500004F11C011B48FFF7C9FF04F138011A488F
:104E6000FFF7C4FF04F154011848FFF7BFFF04F136
:104E700070011748FFF7BAFF04F18C011548FFF7DE
:104E8000B5FF04F1A8011448FFF7B0FF04F1C40115
:104E90001248FFF7ABFF04F1E0011148FFF7A6FF4E
:104EA00004F1FC010F48FFF7A1FF04F58C710E48D7
:104EB000FFF79CFF10BD00BF0044025804570008D4
:104EC000000002580004025800080258000C025862
:104ED000001002580014025800180258001C025812
:104EE00000200258002402580028025808B5FFF795
:104EF0008DFF00F03BF90C4BD3F8902242F00102F9
:104F0000C3F89022D3F8942242F00102C3F894220D
:104F10000522C3F898204FF06052C3F89C20034A42
:104F2000C3F8A02008BD00BF00ED00E01F0008038B
:104F300008B500F009FAFDF70DFE0F4BD3F8DC20A1
:104F400042F04002C3F8DC20D3F8042122F04002F2
:104F5000C3F80421D3F80431084B1A6842F0080260
:104F60001A601A6842F004021A60FEF717FCFEF796
:104F700071FBFEF789F808BD00440258001802488A
:104F8000704700BF114BD3F8E82042F00802C3F885
:104F9000E820D3F8102142F00802C3F81021D3F81A
:104FA00010310B4AD36B43F00803D363094BC7227C
:104FB0009A624FF0FF32DA6200229A615A63DA6035
:104FC0005A6001225A611A60704700BF00440258BB
:104FD0000010005C000C004008B50A4A1369D16853
:104FE000C9B20B40D943116113F0020F00D108BDC3
:104FF000302383F31188FDF7CFFD002383F311885D
:10500000F5E700BF000C0040084A136843F48073C2
:105010001360074B1B6F13F4407F05D0044B4FF414
:1050200080321A6700221A67704700BF0048025892
:10503000004402580C4B0222DA600B4B5B6813F4FD
:10504000005FFAD0084B094A1A6001229A60084AA8
:10505000DA6000221A614FF440429A61024B9B6968
:1050600013F4005FFAD070470048025800C000F007
:105070000200000110B53B4BD3F8802062F00042E3
:10508000C3F88020D3F8802002F00042C3F88020CB
:10509000D3F88020D3F884204FF0FF31C3F8841078
:1050A000D3F884200022C3F88420D3F88400D86F7A
:1050B00040F0FF4040F4FF0040F4DF4040F07F004C
:1050C000D867D86F20F0FF4020F4FF0020F4DF40C5
:1050D00020F07F00D867D86FD3F88840224820435B
:1050E000C3F88800D3F88800C0F30A00C3F888002A
:1050F000D3F88800D3F89000C3F89010D3F890004C
:10510000C3F89020D3F89000D3F89400C3F894101B
:10511000D3F89400C3F89420D3F89400D3F89800FF
:10512000C3F89810D3F89800C3F89820D3F89800E3
:10513000D3F88C00C3F88C10D3F88C00C3F88C2003
:10514000D3F88C00D3F89C00C3F89C10D3F89C10C3
:10515000C3F89C20D3F89C30FCF7B2FA00F0E6F8D4
:1051600010BD00BF0044025800F8FFFF10B55A4BB5
:105170000122C3F80821594CD4F8F43043F002035B
:10518000C4F8F430D4F81C3143F00203C4F81C31E5
:10519000D4F81C31FFF74EFFFFF736FF236843F0CA
:1051A000010323604D4B1B6813F0040FFAD04B4BE7
:1051B00000221A61494B1B6913F0380FFAD1474B93
:1051C00001221A604FF080425A6000225A67444A16
:1051D000DA62444A1A611A6842F480321A603F4B1C
:1051E0001B6813F4003FFAD03C4A136843F4805321
:1051F00013603A4B1B6813F4005FFAD0374B3A4AFE
:105200009A6200225A6339491963DA6301F57C0115
:1052100001F2E71199635A64354A1A64354ADA6231
:105220001A6842F0A8521A602C4B1B6803F02853EE
:10523000B3F1285FF8D1294B48229A614FF4886274
:10524000DA6140221A622C4ADA642C4A1A652C4A26
:105250005A652C4A9A652C4B32221A602A4B1B68DD
:1052600003F00F03022BF9D11C4A136943F0030327
:1052700013611A4B1B6903F03803182BF9D1174B34
:10528000D3F8DC2042F00052C3F8DC20D3F804212C
:1052900042F00052C3F80421D3F80421D3F8DC20F3
:1052A00042F08042C3F8DC20D3F8042142F080426F
:1052B000C3F80421D3F80421D3F8DC2042F00042E3
:1052C000C3F8DC20D3F8042142F00042C3F80421E3
:1052D000D3F8043110BD00BF0080005100440258D3
:1052E0000000FF01008890081210200063020901ED
:1052F000470E0508DD0BBF01200000200000011053
:105300000910E000000101100020005208B5034818
:10531000FCF782FBFEF796FA08BD00BF602800206C
:1053200008B5FFF759FEFEF78DFA08BD08B509214B
:105330007A20FCF7EDFB07213220FCF7E9FB0C217A
:105340002520FCF7E5FB08BD08B5FFF793FE00F04C
:105350000BF8FCF7BDFDFDF703F8FCF789FEFFF73E
:105360000FFEFFF78DFB08BD704700BF623062661D
:105370003536366461376630336230320000000003
:1053800053544D333248373F3F3F00000000000088
:1053900053544D3332483733782F3732780000007A
:1053A00053544D3332483734332F3735332F373555
:1053B00030000000633000004172647550696C6F0A
:1053C0007400000025424F415244252D424C0000FC
:1053D0002553455249414C250000000025424F41CC
:1053E000524425004D69636F416972373433763218
:1053F000000000003031323334353637383941421D
:1054000043444546000000006D61696E00000000E5
:1054100069646C65000000001211000012130000A6
:105420001210000001105A0003105900012058000A
:10543000032056001000024008000240000802400D
:1054400000000B002800024008000240040802404F
:1054500006010C004000024008000240080802401B
:1054600010020D0058000240080002400C080240E3
:1054700016030E00700002400C00024010080240AB
:1054800000040F00880002400C0002401408024093
:1054900006051000A00002400C000240180802405F
:1054A00010061100B80002400C0002401C08024027
:1054B00016072F0010040240080402402008024092
:1054C0000008380028040240080402402408024072
:1054D000060939004004024008040240280802403E
:1054E000100A3A0058040240080402402C08024006
:1054F000160B3B00700402400C04024030080240CE
:10550000000C3C00880402400C04024034080240B5
:10551000060D4400A00402400C040240380802407A
:10552000100E4500B80402400C0402403C08024042
:10553000160F46000096000000000000000000006A
:10554000000000000000000000000000000000005B
:10555000891E00086D1E0008C11E0008A51E000857
:10556000B51E0008991E00087D1E0008611E000877
:10557000511E000800000000292000080D2000082E
:105580006120000845200008552000083920000847
:105590001D200008012000084D1F00080100000028
:1055A0000000000000000000B4530008D0280020D4
:1055B000E02A0020DC470020010102001D30000825
:1055C000052F0008A52F0008892F00080300000000
:1055D000000000002D230008000000001000000063
:1055E000402B00200000000001000000000000002F
:1055F00002000000000000004D220008D92200082F
:1056000040004000602B0020502B002002000000D2
:1056100000000000040309044300000020560008B5
:1056200009024300020100C0320904000001020225
:1056300001000524001001052401000104240202D8
:105640000524060001070582030800FF0904010084
:10565000020A000000070501024000000705810260
:1056600040000000120000006C56000812011001FA
:10567000020000400912415700020102030100002C
:1056800000000020000002000200000000000030C6
:1056900000000400080000000000002400000800D2
:1056A000040000000004000000FC000002000000F4
:1056B00000000430008000000800000000000038F6
:1056C00000000100010000000001000000100000C7
:1056D00008000000800000004001000008000000F9
:1056E00000000000952700089528000845290008BB
:1056F00040004000304700203047002001000000FB
:10570000284700200000A86A00000000AAAAAAAA50
:1057100000001464FFFF00000000000070A70A00F2
:105720000000000100000000AAAAAAAA00000001CF
:10573000FFFF00000000000000000000000000006B
:1057400000000000AAAAAAAA00000000FFFF0000B3
:105750000000000000000000000500000000000044
:10576000AAAAAAAA00050000FFFF0000000000008E
:10577000000000001001000000000000AAAAAAAA70
:1057800000000000EBFF000000000000000000002F
:105790000000000000000000AAAAAAAA0000000061
:1057A000FFFF0000000000000000000000000000FB
:1057B00000000000AAAAAAAA00000000FFFF000043
:1057C00000000000000000000000000000000000D9
:1057D000AAAAAAAA00000000FFFF00000000000023
:1057E000000000000000000000000000AAAAAAAA11
:1057F00000000000FFFF00000000000000000000AB
:105800000000000000000000AAAAAAAA00000000F0
:10581000FFFF00000000000000000000000000008A
:1058200000000000AAAAAAAA00000000FFFF0000D2
:1058300000000000000000009B04000000000000C9
:1058400000001A0000000000FF000000D02D002022
:10585000602800200000000080530008830400003E
:105860009053000850040000A05300080096000068
:1058700000000800040000001456000800000000AA
:105880000000000000000000000000000000000018
:0C5890000000000000960000000008006E
:00000001FF
